{
  "_format": "hh3-artifact-1",
  "contractName": "WalletInsights",
  "sourceName": "contracts/WalletInsights.sol",
  "abi": [
    {
      "anonymous": false,
      "inputs": [
        {
          "indexed": true,
          "internalType": "address",
          "name": "user",
          "type": "address"
        },
        {
          "indexed": false,
          "internalType": "string",
          "name": "query",
          "type": "string"
        },
        {
          "indexed": false,
          "internalType": "string",
          "name": "answer",
          "type": "string"
        },
        {
          "indexed": false,
          "internalType": "uint256",
          "name": "timestamp",
          "type": "uint256"
        }
      ],
      "name": "InsightLogged",
      "type": "event"
    },
    {
      "inputs": [],
      "name": "getAllInsights",
      "outputs": [
        {
          "components": [
            {
              "internalType": "address",
              "name": "user",
              "type": "address"
            },
            {
              "internalType": "string",
              "name": "query",
              "type": "string"
            },
            {
              "internalType": "string",
              "name": "answer",
              "type": "string"
            },
            {
              "internalType": "uint256",
              "name": "timestamp",
              "type": "uint256"
            }
          ],
          "internalType": "struct WalletInsights.Insight[]",
          "name": "",
          "type": "tuple[]"
        }
      ],
      "stateMutability": "view",
      "type": "function"
    },
    {
      "inputs": [
        {
          "internalType": "uint256",
          "name": "index",
          "type": "uint256"
        }
      ],
      "name": "getInsight",
      "outputs": [
        {
          "components": [
            {
              "internalType": "address",
              "name": "user",
              "type": "address"
            },
            {
              "internalType": "string",
              "name": "query",
              "type": "string"
            },
            {
              "internalType": "string",
              "name": "answer",
              "type": "string"
            },
            {
              "internalType": "uint256",
              "name": "timestamp",
              "type": "uint256"
            }
          ],
          "internalType": "struct WalletInsights.Insight",
          "name": "",
          "type": "tuple"
        }
      ],
      "stateMutability": "view",
      "type": "function"
    },
    {
      "inputs": [],
      "name": "getInsightsCount",
      "outputs": [
        {
          "internalType": "uint256",
          "name": "",
          "type": "uint256"
        }
      ],
      "stateMutability": "view",
      "type": "function"
    },
    {
      "inputs": [
        {
          "internalType": "uint256",
          "name": "",
          "type": "uint256"
        }
      ],
      "name": "insights",
      "outputs": [
        {
          "internalType": "address",
          "name": "user",
          "type": "address"
        },
        {
          "internalType": "string",
          "name": "query",
          "type": "string"
        },
        {
          "internalType": "string",
          "name": "answer",
          "type": "string"
        },
        {
          "internalType": "uint256",
          "name": "timestamp",
          "type": "uint256"
        }
      ],
      "stateMutability": "view",
      "type": "function"
    },
    {
      "inputs": [
        {
          "internalType": "string",
          "name": "query",
          "type": "string"
        },
        {
          "internalType": "string",
          "name": "answer",
          "type": "string"
        }
      ],
      "name": "logInsight",
      "outputs": [],
      "stateMutability": "nonpayable",
      "type": "function"
    }
  ],
  "bytecode": "0x608060405234801561001057600080fd5b50610b5c806100206000396000f3fe608060405234801561001057600080fd5b50600436106100575760003560e01c806319c9d3311461005c57806327e48d6a14610088578063712a095e14610099578063c01bcdfd146100b9578063e9b7f457146100ce575b600080fd5b61006f61006a36600461071f565b6100e3565b60405161007f949392919061077e565b60405180910390f35b60005460405190815260200161007f565b6100ac6100a736600461071f565b610239565b60405161007f919061081d565b6100c161042a565b60405161007f9190610837565b6100e16100dc3660046108e2565b6105cd565b005b600081815481106100f357600080fd5b6000918252602090912060049091020180546001820180546001600160a01b039092169350906101229061094e565b80601f016020809104026020016040519081016040528092919081815260200182805461014e9061094e565b801561019b5780601f106101705761010080835404028352916020019161019b565b820191906000526020600020905b81548152906001019060200180831161017e57829003601f168201915b5050505050908060020180546101b09061094e565b80601f01602080910402602001604051908101604052809291908181526020018280546101dc9061094e565b80156102295780601f106101fe57610100808354040283529160200191610229565b820191906000526020600020905b81548152906001019060200180831161020c57829003601f168201915b5050505050908060030154905084565b61026d604051806080016040528060006001600160a01b031681526020016060815260200160608152602001600081525090565b60005482106102b25760405162461bcd60e51b815260206004820152600d60248201526c092dcecc2d8d2c840d2dcc8caf609b1b604482015260640160405180910390fd5b600082815481106102c5576102c5610988565b6000918252602091829020604080516080810190915260049092020180546001600160a01b0316825260018101805492939192918401916103059061094e565b80601f01602080910402602001604051908101604052809291908181526020018280546103319061094e565b801561037e5780601f106103535761010080835404028352916020019161037e565b820191906000526020600020905b81548152906001019060200180831161036157829003601f168201915b505050505081526020016002820180546103979061094e565b80601f01602080910402602001604051908101604052809291908181526020018280546103c39061094e565b80156104105780601f106103e557610100808354040283529160200191610410565b820191906000526020600020905b8154815290600101906020018083116103f357829003601f168201915b505050505081526020016003820154815250509050919050565b60606000805480602002602001604051908101604052809291908181526020016000905b828210156105c457600084815260209081902060408051608081019091526004850290910180546001600160a01b0316825260018101805492939192918401916104979061094e565b80601f01602080910402602001604051908101604052809291908181526020018280546104c39061094e565b80156105105780601f106104e557610100808354040283529160200191610510565b820191906000526020600020905b8154815290600101906020018083116104f357829003601f168201915b505050505081526020016002820180546105299061094e565b80601f01602080910402602001604051908101604052809291908181526020018280546105559061094e565b80156105a25780601f10610577576101008083540402835291602001916105a2565b820191906000526020600020905b81548152906001019060200180831161058557829003601f168201915b505050505081526020016003820154815250508152602001906001019061044e565b50505050905090565b60006040518060800160405280336001600160a01b0316815260200186868080601f016020809104026020016040519081016040528093929190818152602001838380828437600092019190915250505090825250604080516020601f87018190048102820181019092528581529181019190869086908190840183828082843760009201829052509385525050426020938401525083546001808201865594825290829020835160049092020180546001600160a01b0319166001600160a01b039092169190911781559082015191929091908201906106ae9082610a03565b50604082015160028201906106c39082610a03565b50606082015181600301555050336001600160a01b03167f4fef55924c00cd15a4f3a60b00eda8a323d351ce9903a835de190575bed583cd8585858542604051610711959493929190610aec565b60405180910390a250505050565b60006020828403121561073157600080fd5b5035919050565b6000815180845260005b8181101561075e57602081850181015186830182015201610742565b506000602082860101526020601f19601f83011685010191505092915050565b6001600160a01b03851681526080602082018190526000906107a290830186610738565b82810360408401526107b48186610738565b91505082606083015295945050505050565b60018060a01b03815116825260006020820151608060208501526107ed6080850182610738565b9050604083015184820360408601526108068282610738565b915050606083015160608501528091505092915050565b60208152600061083060208301846107c6565b9392505050565b6000602080830181845280855180835260408601915060408160051b870101925083870160005b8281101561088c57603f1988860301845261087a8583516107c6565b9450928501929085019060010161085e565b5092979650505050505050565b60008083601f8401126108ab57600080fd5b50813567ffffffffffffffff8111156108c357600080fd5b6020830191508360208285010111156108db57600080fd5b9250929050565b600080600080604085870312156108f857600080fd5b843567ffffffffffffffff8082111561091057600080fd5b61091c88838901610899565b9096509450602087013591508082111561093557600080fd5b5061094287828801610899565b95989497509550505050565b600181811c9082168061096257607f821691505b60208210810361098257634e487b7160e01b600052602260045260246000fd5b50919050565b634e487b7160e01b600052603260045260246000fd5b634e487b7160e01b600052604160045260246000fd5b601f8211156109fe57600081815260208120601f850160051c810160208610156109db5750805b601f850160051c820191505b818110156109fa578281556001016109e7565b5050505b505050565b815167ffffffffffffffff811115610a1d57610a1d61099e565b610a3181610a2b845461094e565b846109b4565b602080601f831160018114610a665760008415610a4e5750858301515b600019600386901b1c1916600185901b1785556109fa565b600085815260208120601f198616915b82811015610a9557888601518255948401946001909101908401610a76565b5085821015610ab35787850151600019600388901b60f8161c191681555b5050505050600190811b01905550565b81835281816020850137506000828201602090810191909152601f909101601f19169091010190565b606081526000610b00606083018789610ac3565b8281036020840152610b13818688610ac3565b915050826040830152969550505050505056fea2646970667358221220c24649dab09571af70fd75599de4657bc51d3deb923c602f4ec78e0da31eb8c764736f6c63430008130033",
  "linkReferences": {},
  "deployedLinkReferences": {},
  "immutableReferences": {},
  "inputSourceName": "project/contracts/WalletInsights.sol",
  "buildInfoId": "solc-0_8_19-62c7170274fa4a9ff6305297ac03723269fcc778"
}